{
  "_format": "hh-sol-artifact-1",
  "contractName": "ArisanPool",
  "sourceName": "contracts/ArisanPool.sol",
  "abi": [
    {
      "inputs": [],
      "name": "ReentrancyGuardReentrantCall",
      "type": "error"
    },
    {
      "inputs": [
        {
          "internalType": "address",
          "name": "token",
          "type": "address"
        }
      ],
      "name": "SafeERC20FailedOperation",
      "type": "error"
    },
    {
      "anonymous": false,
      "inputs": [
        {
          "indexed": true,
          "internalType": "uint256",
          "name": "poolId",
          "type": "uint256"
        },
        {
          "indexed": true,
          "internalType": "address",
          "name": "member",
          "type": "address"
        },
        {
          "indexed": false,
          "internalType": "uint256",
          "name": "amount",
          "type": "uint256"
        },
        {
          "indexed": false,
          "internalType": "uint256",
          "name": "round",
          "type": "uint256"
        }
      ],
      "name": "ContributionMade",
      "type": "event"
    },
    {
      "anonymous": false,
      "inputs": [
        {
          "indexed": true,
          "internalType": "uint256",
          "name": "poolId",
          "type": "uint256"
        },
        {
          "indexed": true,
          "internalType": "address",
          "name": "member",
          "type": "address"
        },
        {
          "indexed": false,
          "internalType": "uint256",
          "name": "recoveredAmount",
          "type": "uint256"
        }
      ],
      "name": "DefaultResolved",
      "type": "event"
    },
    {
      "anonymous": false,
      "inputs": [
        {
          "indexed": true,
          "internalType": "address",
          "name": "member",
          "type": "address"
        },
        {
          "indexed": false,
          "internalType": "uint256",
          "name": "amount",
          "type": "uint256"
        },
        {
          "indexed": false,
          "internalType": "string",
          "name": "withdrawType",
          "type": "string"
        }
      ],
      "name": "FundsWithdrawn",
      "type": "event"
    },
    {
      "anonymous": false,
      "inputs": [
        {
          "indexed": true,
          "internalType": "uint256",
          "name": "poolId",
          "type": "uint256"
        },
        {
          "indexed": true,
          "internalType": "address",
          "name": "member",
          "type": "address"
        }
      ],
      "name": "MemberApproved",
      "type": "event"
    },
    {
      "anonymous": false,
      "inputs": [
        {
          "indexed": true,
          "internalType": "uint256",
          "name": "poolId",
          "type": "uint256"
        },
        {
          "indexed": true,
          "internalType": "address",
          "name": "member",
          "type": "address"
        }
      ],
      "name": "MemberRemoved",
      "type": "event"
    },
    {
      "anonymous": false,
      "inputs": [
        {
          "indexed": true,
          "internalType": "uint256",
          "name": "poolId",
          "type": "uint256"
        },
        {
          "indexed": true,
          "internalType": "address",
          "name": "member",
          "type": "address"
        },
        {
          "indexed": true,
          "internalType": "address",
          "name": "reportedBy",
          "type": "address"
        }
      ],
      "name": "MemberReportedDefault",
      "type": "event"
    },
    {
      "anonymous": false,
      "inputs": [
        {
          "indexed": true,
          "internalType": "uint256",
          "name": "poolId",
          "type": "uint256"
        },
        {
          "indexed": true,
          "internalType": "address",
          "name": "member",
          "type": "address"
        }
      ],
      "name": "MemberRequested",
      "type": "event"
    },
    {
      "anonymous": false,
      "inputs": [
        {
          "indexed": true,
          "internalType": "uint256",
          "name": "poolId",
          "type": "uint256"
        },
        {
          "indexed": true,
          "internalType": "address",
          "name": "voucher",
          "type": "address"
        },
        {
          "indexed": true,
          "internalType": "address",
          "name": "vouchee",
          "type": "address"
        },
        {
          "indexed": false,
          "internalType": "uint256",
          "name": "amount",
          "type": "uint256"
        }
      ],
      "name": "MemberVouched",
      "type": "event"
    },
    {
      "anonymous": false,
      "inputs": [
        {
          "indexed": true,
          "internalType": "uint256",
          "name": "poolId",
          "type": "uint256"
        },
        {
          "indexed": true,
          "internalType": "address",
          "name": "winner",
          "type": "address"
        },
        {
          "indexed": false,
          "internalType": "uint256",
          "name": "amount",
          "type": "uint256"
        }
      ],
      "name": "PayoutClaimed",
      "type": "event"
    },
    {
      "anonymous": false,
      "inputs": [
        {
          "indexed": true,
          "internalType": "uint256",
          "name": "poolId",
          "type": "uint256"
        },
        {
          "indexed": false,
          "internalType": "uint256",
          "name": "totalRounds",
          "type": "uint256"
        }
      ],
      "name": "PoolActivated",
      "type": "event"
    },
    {
      "anonymous": false,
      "inputs": [
        {
          "indexed": true,
          "internalType": "uint256",
          "name": "poolId",
          "type": "uint256"
        }
      ],
      "name": "PoolCancelled",
      "type": "event"
    },
    {
      "anonymous": false,
      "inputs": [
        {
          "indexed": true,
          "internalType": "uint256",
          "name": "poolId",
          "type": "uint256"
        }
      ],
      "name": "PoolCompleted",
      "type": "event"
    },
    {
      "anonymous": false,
      "inputs": [
        {
          "indexed": true,
          "internalType": "uint256",
          "name": "poolId",
          "type": "uint256"
        },
        {
          "indexed": false,
          "internalType": "address[]",
          "name": "order",
          "type": "address[]"
        }
      ],
      "name": "RotationOrderSet",
      "type": "event"
    },
    {
      "anonymous": false,
      "inputs": [
        {
          "indexed": true,
          "internalType": "uint256",
          "name": "poolId",
          "type": "uint256"
        },
        {
          "indexed": true,
          "internalType": "uint256",
          "name": "round",
          "type": "uint256"
        },
        {
          "indexed": false,
          "internalType": "uint256",
          "name": "deadline",
          "type": "uint256"
        }
      ],
      "name": "RoundStarted",
      "type": "event"
    },
    {
      "anonymous": false,
      "inputs": [
        {
          "indexed": true,
          "internalType": "uint256",
          "name": "poolId",
          "type": "uint256"
        },
        {
          "indexed": true,
          "internalType": "address",
          "name": "member",
          "type": "address"
        },
        {
          "indexed": false,
          "internalType": "uint256",
          "name": "amount",
          "type": "uint256"
        }
      ],
      "name": "SecurityDepositLocked",
      "type": "event"
    },
    {
      "anonymous": false,
      "inputs": [
        {
          "indexed": true,
          "internalType": "uint256",
          "name": "poolId",
          "type": "uint256"
        },
        {
          "indexed": true,
          "internalType": "address",
          "name": "voucher",
          "type": "address"
        },
        {
          "indexed": true,
          "internalType": "address",
          "name": "vouchee",
          "type": "address"
        },
        {
          "indexed": false,
          "internalType": "uint256",
          "name": "amount",
          "type": "uint256"
        }
      ],
      "name": "VouchReturned",
      "type": "event"
    },
    {
      "anonymous": false,
      "inputs": [
        {
          "indexed": true,
          "internalType": "uint256",
          "name": "poolId",
          "type": "uint256"
        },
        {
          "indexed": true,
          "internalType": "uint256",
          "name": "round",
          "type": "uint256"
        },
        {
          "indexed": true,
          "internalType": "address",
          "name": "winner",
          "type": "address"
        }
      ],
      "name": "WinnerDetermined",
      "type": "event"
    },
    {
      "inputs": [],
      "name": "GRACE_PERIOD",
      "outputs": [
        {
          "internalType": "uint256",
          "name": "",
          "type": "uint256"
        }
      ],
      "stateMutability": "view",
      "type": "function"
    },
    {
      "inputs": [],
      "name": "activatePool",
      "outputs": [],
      "stateMutability": "nonpayable",
      "type": "function"
    },
    {
      "inputs": [],
      "name": "activatedAt",
      "outputs": [
        {
          "internalType": "uint256",
          "name": "",
          "type": "uint256"
        }
      ],
      "stateMutability": "view",
      "type": "function"
    },
    {
      "inputs": [],
      "name": "admin",
      "outputs": [
        {
          "internalType": "address",
          "name": "",
          "type": "address"
        }
      ],
      "stateMutability": "view",
      "type": "function"
    },
    {
      "inputs": [
        {
          "internalType": "address",
          "name": "member",
          "type": "address"
        }
      ],
      "name": "approveMember",
      "outputs": [],
      "stateMutability": "nonpayable",
      "type": "function"
    },
    {
      "inputs": [],
      "name": "cancelPool",
      "outputs": [],
      "stateMutability": "nonpayable",
      "type": "function"
    },
    {
      "inputs": [],
      "name": "category",
      "outputs": [
        {
          "internalType": "string",
          "name": "",
          "type": "string"
        }
      ],
      "stateMutability": "view",
      "type": "function"
    },
    {
      "inputs": [],
      "name": "claimPayout",
      "outputs": [],
      "stateMutability": "nonpayable",
      "type": "function"
    },
    {
      "inputs": [],
      "name": "config",
      "outputs": [
        {
          "internalType": "uint256",
          "name": "contributionAmount",
          "type": "uint256"
        },
        {
          "internalType": "uint256",
          "name": "securityDepositAmount",
          "type": "uint256"
        },
        {
          "internalType": "uint256",
          "name": "maxMembers",
          "type": "uint256"
        },
        {
          "internalType": "uint8",
          "name": "paymentDay",
          "type": "uint8"
        },
        {
          "internalType": "bool",
          "name": "vouchRequired",
          "type": "bool"
        },
        {
          "internalType": "enum ArisanPool.RotationPeriod",
          "name": "rotationPeriod",
          "type": "uint8"
        },
        {
          "internalType": "string",
          "name": "poolName",
          "type": "string"
        },
        {
          "internalType": "string",
          "name": "category",
          "type": "string"
        }
      ],
      "stateMutability": "view",
      "type": "function"
    },
    {
      "inputs": [],
      "name": "contribute",
      "outputs": [],
      "stateMutability": "nonpayable",
      "type": "function"
    },
    {
      "inputs": [
        {
          "internalType": "uint256",
          "name": "",
          "type": "uint256"
        },
        {
          "internalType": "address",
          "name": "",
          "type": "address"
        }
      ],
      "name": "contributions",
      "outputs": [
        {
          "internalType": "bool",
          "name": "",
          "type": "bool"
        }
      ],
      "stateMutability": "view",
      "type": "function"
    },
    {
      "inputs": [],
      "name": "currentRound",
      "outputs": [
        {
          "internalType": "uint256",
          "name": "",
          "type": "uint256"
        }
      ],
      "stateMutability": "view",
      "type": "function"
    },
    {
      "inputs": [],
      "name": "debtNFT",
      "outputs": [
        {
          "internalType": "contract DebtNFT",
          "name": "",
          "type": "address"
        }
      ],
      "stateMutability": "view",
      "type": "function"
    },
    {
      "inputs": [],
      "name": "determineWinner",
      "outputs": [],
      "stateMutability": "nonpayable",
      "type": "function"
    },
    {
      "inputs": [],
      "name": "factory",
      "outputs": [
        {
          "internalType": "address",
          "name": "",
          "type": "address"
        }
      ],
      "stateMutability": "view",
      "type": "function"
    },
    {
      "inputs": [
        {
          "internalType": "address",
          "name": "member",
          "type": "address"
        }
      ],
      "name": "getMemberInfo",
      "outputs": [
        {
          "components": [
            {
              "internalType": "enum ArisanPool.MemberStatus",
              "name": "status",
              "type": "uint8"
            },
            {
              "internalType": "uint256",
              "name": "lockedStake",
              "type": "uint256"
            },
            {
              "internalType": "uint256",
              "name": "liquidBalance",
              "type": "uint256"
            },
            {
              "internalType": "uint256",
              "name": "joinedAt",
              "type": "uint256"
            },
            {
              "internalType": "bool",
              "name": "hasClaimedPayout",
              "type": "bool"
            }
          ],
          "internalType": "struct ArisanPool.MemberInfo",
          "name": "",
          "type": "tuple"
        }
      ],
      "stateMutability": "view",
      "type": "function"
    },
    {
      "inputs": [],
      "name": "getMemberList",
      "outputs": [
        {
          "internalType": "address[]",
          "name": "",
          "type": "address[]"
        }
      ],
      "stateMutability": "view",
      "type": "function"
    },
    {
      "inputs": [],
      "name": "getPendingList",
      "outputs": [
        {
          "internalType": "address[]",
          "name": "",
          "type": "address[]"
        }
      ],
      "stateMutability": "view",
      "type": "function"
    },
    {
      "inputs": [],
      "name": "getPoolConfig",
      "outputs": [
        {
          "components": [
            {
              "internalType": "uint256",
              "name": "contributionAmount",
              "type": "uint256"
            },
            {
              "internalType": "uint256",
              "name": "securityDepositAmount",
              "type": "uint256"
            },
            {
              "internalType": "uint256",
              "name": "maxMembers",
              "type": "uint256"
            },
            {
              "internalType": "uint8",
              "name": "paymentDay",
              "type": "uint8"
            },
            {
              "internalType": "bool",
              "name": "vouchRequired",
              "type": "bool"
            },
            {
              "internalType": "enum ArisanPool.RotationPeriod",
              "name": "rotationPeriod",
              "type": "uint8"
            },
            {
              "internalType": "string",
              "name": "poolName",
              "type": "string"
            },
            {
              "internalType": "string",
              "name": "category",
              "type": "string"
            }
          ],
          "internalType": "struct ArisanPool.PoolConfig",
          "name": "",
          "type": "tuple"
        }
      ],
      "stateMutability": "view",
      "type": "function"
    },
    {
      "inputs": [],
      "name": "getPoolStatus",
      "outputs": [
        {
          "internalType": "enum ArisanPool.PoolStatus",
          "name": "_status",
          "type": "uint8"
        },
        {
          "internalType": "uint256",
          "name": "_currentRound",
          "type": "uint256"
        },
        {
          "internalType": "uint256",
          "name": "_totalRounds",
          "type": "uint256"
        },
        {
          "internalType": "uint256",
          "name": "_activeMembers",
          "type": "uint256"
        },
        {
          "internalType": "uint256",
          "name": "_deadline",
          "type": "uint256"
        }
      ],
      "stateMutability": "view",
      "type": "function"
    },
    {
      "inputs": [],
      "name": "getRotationOrder",
      "outputs": [
        {
          "internalType": "address[]",
          "name": "",
          "type": "address[]"
        }
      ],
      "stateMutability": "view",
      "type": "function"
    },
    {
      "inputs": [],
      "name": "getRoundDeadline",
      "outputs": [
        {
          "internalType": "uint256",
          "name": "",
          "type": "uint256"
        }
      ],
      "stateMutability": "view",
      "type": "function"
    },
    {
      "inputs": [
        {
          "internalType": "address",
          "name": "member",
          "type": "address"
        }
      ],
      "name": "getVouchesReceived",
      "outputs": [
        {
          "components": [
            {
              "internalType": "address",
              "name": "voucher",
              "type": "address"
            },
            {
              "internalType": "uint256",
              "name": "amount",
              "type": "uint256"
            },
            {
              "internalType": "bool",
              "name": "returned",
              "type": "bool"
            }
          ],
          "internalType": "struct ArisanPool.VouchInfo[]",
          "name": "",
          "type": "tuple[]"
        }
      ],
      "stateMutability": "view",
      "type": "function"
    },
    {
      "inputs": [
        {
          "internalType": "uint256",
          "name": "round",
          "type": "uint256"
        },
        {
          "internalType": "address",
          "name": "member",
          "type": "address"
        }
      ],
      "name": "hasContributed",
      "outputs": [
        {
          "internalType": "bool",
          "name": "",
          "type": "bool"
        }
      ],
      "stateMutability": "view",
      "type": "function"
    },
    {
      "inputs": [
        {
          "components": [
            {
              "internalType": "uint256",
              "name": "poolId",
              "type": "uint256"
            },
            {
              "internalType": "address",
              "name": "admin",
              "type": "address"
            },
            {
              "internalType": "address",
              "name": "token",
              "type": "address"
            },
            {
              "internalType": "address",
              "name": "debtNFT",
              "type": "address"
            },
            {
              "internalType": "address",
              "name": "reputationRegistry",
              "type": "address"
            },
            {
              "internalType": "address",
              "name": "platformWallet",
              "type": "address"
            },
            {
              "internalType": "uint256",
              "name": "contributionAmount",
              "type": "uint256"
            },
            {
              "internalType": "uint256",
              "name": "securityDepositAmount",
              "type": "uint256"
            },
            {
              "internalType": "uint256",
              "name": "maxMembers",
              "type": "uint256"
            },
            {
              "internalType": "uint8",
              "name": "paymentDay",
              "type": "uint8"
            },
            {
              "internalType": "bool",
              "name": "vouchRequired",
              "type": "bool"
            },
            {
              "internalType": "uint8",
              "name": "rotationPeriod",
              "type": "uint8"
            },
            {
              "internalType": "string",
              "name": "poolName",
              "type": "string"
            },
            {
              "internalType": "string",
              "name": "category",
              "type": "string"
            }
          ],
          "internalType": "struct ArisanPool.InitParams",
          "name": "params",
          "type": "tuple"
        }
      ],
      "name": "initialize",
      "outputs": [],
      "stateMutability": "nonpayable",
      "type": "function"
    },
    {
      "inputs": [],
      "name": "lockSecurityDeposit",
      "outputs": [],
      "stateMutability": "nonpayable",
      "type": "function"
    },
    {
      "inputs": [
        {
          "internalType": "uint256",
          "name": "",
          "type": "uint256"
        }
      ],
      "name": "memberList",
      "outputs": [
        {
          "internalType": "address",
          "name": "",
          "type": "address"
        }
      ],
      "stateMutability": "view",
      "type": "function"
    },
    {
      "inputs": [
        {
          "internalType": "address",
          "name": "",
          "type": "address"
        }
      ],
      "name": "members",
      "outputs": [
        {
          "internalType": "enum ArisanPool.MemberStatus",
          "name": "status",
          "type": "uint8"
        },
        {
          "internalType": "uint256",
          "name": "lockedStake",
          "type": "uint256"
        },
        {
          "internalType": "uint256",
          "name": "liquidBalance",
          "type": "uint256"
        },
        {
          "internalType": "uint256",
          "name": "joinedAt",
          "type": "uint256"
        },
        {
          "internalType": "bool",
          "name": "hasClaimedPayout",
          "type": "bool"
        }
      ],
      "stateMutability": "view",
      "type": "function"
    },
    {
      "inputs": [
        {
          "internalType": "uint256",
          "name": "",
          "type": "uint256"
        }
      ],
      "name": "pendingList",
      "outputs": [
        {
          "internalType": "address",
          "name": "",
          "type": "address"
        }
      ],
      "stateMutability": "view",
      "type": "function"
    },
    {
      "inputs": [],
      "name": "platformWallet",
      "outputs": [
        {
          "internalType": "address",
          "name": "",
          "type": "address"
        }
      ],
      "stateMutability": "view",
      "type": "function"
    },
    {
      "inputs": [],
      "name": "poolId",
      "outputs": [
        {
          "internalType": "uint256",
          "name": "",
          "type": "uint256"
        }
      ],
      "stateMutability": "view",
      "type": "function"
    },
    {
      "inputs": [],
      "name": "poolName",
      "outputs": [
        {
          "internalType": "string",
          "name": "",
          "type": "string"
        }
      ],
      "stateMutability": "view",
      "type": "function"
    },
    {
      "inputs": [],
      "name": "recoveredFunds",
      "outputs": [
        {
          "internalType": "uint256",
          "name": "",
          "type": "uint256"
        }
      ],
      "stateMutability": "view",
      "type": "function"
    },
    {
      "inputs": [
        {
          "internalType": "address",
          "name": "member",
          "type": "address"
        }
      ],
      "name": "rejectMember",
      "outputs": [],
      "stateMutability": "nonpayable",
      "type": "function"
    },
    {
      "inputs": [
        {
          "internalType": "address",
          "name": "member",
          "type": "address"
        }
      ],
      "name": "removeMember",
      "outputs": [],
      "stateMutability": "nonpayable",
      "type": "function"
    },
    {
      "inputs": [
        {
          "internalType": "address",
          "name": "member",
          "type": "address"
        }
      ],
      "name": "reportDefault",
      "outputs": [],
      "stateMutability": "nonpayable",
      "type": "function"
    },
    {
      "inputs": [],
      "name": "reputationRegistry",
      "outputs": [
        {
          "internalType": "contract IReputationRegistry",
          "name": "",
          "type": "address"
        }
      ],
      "stateMutability": "view",
      "type": "function"
    },
    {
      "inputs": [],
      "name": "requestJoin",
      "outputs": [],
      "stateMutability": "nonpayable",
      "type": "function"
    },
    {
      "inputs": [
        {
          "internalType": "uint256",
          "name": "",
          "type": "uint256"
        }
      ],
      "name": "rotationOrder",
      "outputs": [
        {
          "internalType": "address",
          "name": "",
          "type": "address"
        }
      ],
      "stateMutability": "view",
      "type": "function"
    },
    {
      "inputs": [
        {
          "internalType": "uint256",
          "name": "",
          "type": "uint256"
        }
      ],
      "name": "roundCompleted",
      "outputs": [
        {
          "internalType": "bool",
          "name": "",
          "type": "bool"
        }
      ],
      "stateMutability": "view",
      "type": "function"
    },
    {
      "inputs": [
        {
          "internalType": "uint256",
          "name": "",
          "type": "uint256"
        }
      ],
      "name": "roundPayouts",
      "outputs": [
        {
          "internalType": "uint256",
          "name": "",
          "type": "uint256"
        }
      ],
      "stateMutability": "view",
      "type": "function"
    },
    {
      "inputs": [],
      "name": "roundStartedAt",
      "outputs": [
        {
          "internalType": "uint256",
          "name": "",
          "type": "uint256"
        }
      ],
      "stateMutability": "view",
      "type": "function"
    },
    {
      "inputs": [
        {
          "internalType": "uint256",
          "name": "",
          "type": "uint256"
        }
      ],
      "name": "roundWinners",
      "outputs": [
        {
          "internalType": "address",
          "name": "",
          "type": "address"
        }
      ],
      "stateMutability": "view",
      "type": "function"
    },
    {
      "inputs": [
        {
          "internalType": "address[]",
          "name": "order",
          "type": "address[]"
        }
      ],
      "name": "setRotationOrder",
      "outputs": [],
      "stateMutability": "nonpayable",
      "type": "function"
    },
    {
      "inputs": [],
      "name": "status",
      "outputs": [
        {
          "internalType": "enum ArisanPool.PoolStatus",
          "name": "",
          "type": "uint8"
        }
      ],
      "stateMutability": "view",
      "type": "function"
    },
    {
      "inputs": [],
      "name": "token",
      "outputs": [
        {
          "internalType": "contract IERC20",
          "name": "",
          "type": "address"
        }
      ],
      "stateMutability": "view",
      "type": "function"
    },
    {
      "inputs": [],
      "name": "totalRounds",
      "outputs": [
        {
          "internalType": "uint256",
          "name": "",
          "type": "uint256"
        }
      ],
      "stateMutability": "view",
      "type": "function"
    },
    {
      "inputs": [
        {
          "internalType": "address",
          "name": "vouchee",
          "type": "address"
        },
        {
          "internalType": "uint256",
          "name": "amount",
          "type": "uint256"
        }
      ],
      "name": "vouch",
      "outputs": [],
      "stateMutability": "nonpayable",
      "type": "function"
    },
    {
      "inputs": [
        {
          "internalType": "address",
          "name": "",
          "type": "address"
        },
        {
          "internalType": "address",
          "name": "",
          "type": "address"
        }
      ],
      "name": "vouchesGiven",
      "outputs": [
        {
          "internalType": "uint256",
          "name": "",
          "type": "uint256"
        }
      ],
      "stateMutability": "view",
      "type": "function"
    },
    {
      "inputs": [
        {
          "internalType": "address",
          "name": "",
          "type": "address"
        },
        {
          "internalType": "uint256",
          "name": "",
          "type": "uint256"
        }
      ],
      "name": "vouchesReceived",
      "outputs": [
        {
          "internalType": "address",
          "name": "voucher",
          "type": "address"
        },
        {
          "internalType": "uint256",
          "name": "amount",
          "type": "uint256"
        },
        {
          "internalType": "bool",
          "name": "returned",
          "type": "bool"
        }
      ],
      "stateMutability": "view",
      "type": "function"
    },
    {
      "inputs": [],
      "name": "withdrawLiquidFunds",
      "outputs": [],
      "stateMutability": "nonpayable",
      "type": "function"
    },
    {
      "inputs": [],
      "name": "withdrawSecurityDeposit",
      "outputs": [],
      "stateMutability": "nonpayable",
      "type": "function"
    },
    {
      "inputs": [
        {
          "internalType": "address",
          "name": "vouchee",
          "type": "address"
        }
      ],
      "name": "withdrawVouch",
      "outputs": [],
      "stateMutability": "nonpayable",
      "type": "function"
    }
  ],
  "bytecode": "0x6080806040523461001b57600160005561427d90816100218239f35b600080fdfe6080604052600436101561001257600080fd5b6000803560e01c8063015093741461356357806303aca7921461353857806305498aa91461340b57806308ae4b0c146133965780630b1ca49a1461321f5780630f6c557214612e4b5780631b55b2a814612dd65780631c94644314612b78578063200d2ed214612b50578063249e038b14612b2757806328f8275714612afc57806329213a2f146129cb57806333b16d93146126b25780633a7d5115146123605780633d891f5914610b885780633e0dc34e146123425780634134ef4c1461217e57806341e4ba9214611ffd57806345199e0a14611f7e5780635703f87c14611f54578063597be6d114611f365780635f1231ea14611e4f5780635f5d5f0014611dd057806366b268e014611cfc5780637549e6ca14611cd957806376a4956c14611ca657806379502c5514611c135780637f79496c14611b9157806380a2823a1461121b5780638a19c8bc146111fd5780638a568299146111df578063918c8040146111c1578063a16e56fc146111a3578063a86f256614610f0f578063a8e67bfc14610d43578063b0d9658014610c18578063b307fc6d14610bd4578063b5b96ae014610b88578063b92b70ce14610b39578063c1a287e214610b1b578063c4572bd914610aa8578063c45a015514610a7f578063c8db44e314610a56578063d7bb99ba14610904578063e4904d9914610829578063e88499a91461051e578063ef430aa614610470578063f22d2ee614610441578063f3466dfa1461035e578063f35e48c4146102e1578063f851a440146102b8578063fa2af9da1461028f5763fc0c546a1461026457600080fd5b3461028c578060031936011261028c576006546040516001600160a01b039091168152602090f35b80fd5b503461028c578060031936011261028c576009546040516001600160a01b039091168152602090f35b503461028c578060031936011261028c576004546040516001600160a01b039091168152602090f35b503461028c578060031936011261028c576040516016805480835290835260208083019360008051602061422883398151915292915b82821061033e5761033a8561032e81890382613833565b6040519182918261374f565b0390f35b83546001600160a01b031686529485019460019384019390910190610317565b503461028c578060031936011261028c5760405160025460008261038183613794565b91828252602093600190856001821691826000146104215750506001146103c4575b506103b092500383613833565b61033a6040519282849384528301906139c6565b84915060026000527f405787fa12a823e0f2b7631cc41b3ba8828b3321ca811111fa75cd3aa3bb5ace906000915b8583106104095750506103b09350820101856103a3565b805483890185015287945086939092019181016103f2565b60ff1916858201526103b095151560051b85010192508791506103a39050565b503461028c57602036600319011261028c5760ff60406020926004358152601f84522054166040519015158152f35b503461028c578060031936011261028c5760405160035460008261049383613794565b91828252602093600190856001821691826000146104215750506001146104c157506103b092500383613833565b84915060036000527fc2575a0e9e593c00f959f8c92f12db2869c3395a3b0502d05e2516446f71f85b906000915b8583106105065750506103b09350820101856103a3565b805483890185015287945086939092019181016104ef565b503461028c578060031936011261028c57610537613d0f565b60ff9060ff601554166004811015610815576105566001809214613b9f565b338252601960209060198252604084209460ff865416906006906006831015610801576105866003809414613bdd565b6004880193845460ff81166107ca57601054808a52601d885260408a20546001600160a01b039791903390891603610785578a9b6002918b9c52601e8a5260408d2054928b60ff19809616179055016105e0828254613ac9565b9055885490604051908152817fe97cee5a4c0549d3fdc81e322b718ddf0aeb3418ec87dce4f9a7fb28d117c3128a3393a3601054601154811061073357505060158054909116600217905588975b610667575b50505050505080919250547fb52c1ad65fbcd831efb359f431f739218d2d794c07fab5aad8affefa80e6dd928380a2815580f35b60175489101561072e578461067b8a6136fe565b905490861b1c16988989528187528260408a2054168481101561071a5798809a868a9b146106af575b50508701989761062e565b909850866008541690813b15610716578991602483926040519c8d938492639af94daf60e01b845260048401525af1988915610709578a99156106a4576106f8919299506137e9565b61070557879689386106a4565b8880fd5b50604051903d90823e3d90fd5b8980fd5b634e487b7160e01b8a52602160045260248afd5b610633565b94509697505050507fa359b664a68acd8839e42112eb50eff3408165e15074fde89ddb58a0db2e691d92506107689150613d00565b928360105542601355610779614075565b604051908152a3815580f35b60405162461bcd60e51b8152600481018a9052601b60248201527f4e6f742077696e6e6572206f662063757272656e7420726f756e6400000000006044820152606490fd5b60405162461bcd60e51b815260048101889052600f60248201526e105b1c9958591e4818db185a5b5959608a1b6044820152606490fd5b634e487b7160e01b87526021600452602487fd5b634e487b7160e01b82526021600452602482fd5b503461028c57602036600319011261028c57610843613660565b6004546001600160a01b039061085c9082163314613a90565b60ff6015541660048110156108f0576108759015613a39565b811690818352601960205260ff60408420541660068110156108f057906108a160016108c69314613aec565b6108aa81613dc8565b828452601960205260408420805460ff19166005179055613eab565b6001547f1c4c9d2e56d0635d11bc47c997c6909a0d7061f55cbb8f4b27386db37553191c8380a380f35b634e487b7160e01b84526021600452602484fd5b503461028c578060031936011261028c5761091d613d0f565b60ff6015541660048110156108155760016109389114613b9f565b33815260206019815260ff6040832054166006811015610a4257600361095e9114613bdd565b6010548252601c81526040822033600052815260ff604060002054166109fe57600654600a5461099a91309033906001600160a01b0316613d32565b6010548252601c8152604082203360005281526040600020600160ff19825416179055600154600a5491601054906040519384528301527ff9b7589b7a8d939b9da5dae90770378fe5fd7802be5d66432e85bedbdbfbcb7a60403393a36001815580f35b6064906040519062461bcd60e51b82526004820152601e60248201527f416c726561647920636f6e7472696275746564207468697320726f756e6400006044820152fd5b634e487b7160e01b83526021600452602483fd5b503461028c578060031936011261028c576008546040516001600160a01b039091168152602090f35b503461028c578060031936011261028c576005546040516001600160a01b039091168152602090f35b503461028c57604036600319011261028c57610ac2613660565b6001600160a01b039081168252601a602052604082208054602435939084101561028c5750606092610af391613a06565b50908154169060ff600260018301549201541690604051928352602083015215156040820152f35b503461028c578060031936011261028c57602060405162093a808152f35b503461028c57604036600319011261028c57610b53613660565b6040610b5d613676565b9260018060a01b038093168152601b6020522091166000526020526020604060002054604051908152f35b503461028c57604036600319011261028c576040610ba4613676565b916004358152601c602052209060018060a01b0316600052602052602060ff604060002054166040519015158152f35b503461028c57602036600319011261028c576004359060175482101561028c576020610bff836136fe565b905460405160039290921b1c6001600160a01b03168152f35b503461028c578060031936011261028c5760e060609160405190610c3b82613817565b808252806020830152806040830152808483015280608083015260a08201528260c08201520152604051610c6e81613817565b600a548152600b54906020810191825261033a600c5460408301908152600d54610d17606085019160ff811683526080860160ff8260081c1615158152610cbf60ff60a089019360101c1683613cae565b60ff610cc9613854565b9460c08901958652610cd961391a565b9660e08a019788526040519a8b9a60208c525160208c01525160408b01525160608a01525116608088015251151560a08701525160c08601906139b9565b51610d30610100918260e08701526101208601906139c6565b915190601f1985840301908501526139c6565b503461028c578060031936011261028c57610d6960018060a01b03600454163314613a90565b60155460ff81166004811015610a4257610d839015613a39565b610d8b61400a565b9060038210610eca578160165403610e8557610da561416a565b15610e2b576001918260209260ff191617601555826010558060115542601255426013557f0609972e829c62644b9d07336a77e33ef1b592fa41a210ed8bf4d7d336b577248354928392604051908152a27fa359b664a68acd8839e42112eb50eff3408165e15074fde89ddb58a0db2e691d6020610e21614075565b604051908152a380f35b60405162461bcd60e51b815260206004820152602c60248201527f4e6f7420616c6c20617070726f766564206d656d626572732068617665206c6f60448201526b18dad9590819195c1bdcda5d60a21b6064820152608490fd5b60405162461bcd60e51b815260206004820152601860248201527f53657420726f746174696f6e206f7264657220666972737400000000000000006044820152606490fd5b60405162461bcd60e51b815260206004820152601e60248201527f4e656564206174206c65617374203320616374697665206d656d6265727300006044820152606490fd5b503461028c5760208060031936011261119f576004356001600160401b0380821161119b573660238301121561119b57816004013590811161119b5760249081830191600536828460051b87010111611197576004546001600160a01b039590610f7c9087163314613a90565b60ff9060ff60155416600481101561118457610f989015613a39565b610fa061400a565b850361114057885b8581106110bf5750505050600160401b82116110ad575060165481601655808210611089575b5092918160168652855b858110611059575050600180549460405194818187018288525260408601949388905b83821061102d5789897f407e4a76743f002a2b04be84334a25a5b78a6ac9f2b6be59e95b860c3d1d1b0b8a8a038ba280f35b90919293949586359082821680920361105457908152830195830194939291840190610ffb565b600080fd5b6001908561106a8498959798613c9a565b9301928160008051602061422883398151915201550194939194610fd8565b6110a790826000805160206142288339815191529182019101613c83565b38610fce565b634e487b7160e01b8652604160045285fd5b876110cf8683871b850101613c9a565b168a52601989528260408b205416600681101561112d576003036110f557600101610fa8565b60405162461bcd60e51b8152600481018a9052601181870152704d656d626572206e6f742061637469766560781b6044820152606490fd5b634e487b7160e01b8b526021600452858bfd5b60405162461bcd60e51b815260048101899052601f818601527f4f72646572206d757374206d6174636820616374697665206d656d62657273006044820152606490fd5b634e487b7160e01b8a526021600452848afd5b8680fd5b8380fd5b5080fd5b503461028c578060031936011261028c576020601354604051908152f35b503461028c578060031936011261028c576020601454604051908152f35b503461028c578060031936011261028c576020601154604051908152f35b503461028c578060031936011261028c576020601054604051908152f35b503461028c5760031960203682011261119f576001600160401b036004351161119f576101c0906004353603011261028c576005546001600160a01b038116611b565760ff61126f61016460043501613c43565b16906002821015610a425781611ad657600660ff61129c6101246004350161129681613c43565b50613c43565b1611611a91575b6001600160a01b03191633176005556004803590810180356001556112cc916101840190613c51565b906001600160401b0382116119a8576112e6600254613794565b601f8111611a42575b508390601f83116001146119bc5761131f92918591836118c8575b50508160011b916000199060031b1c19161790565b6002555b6113386101a460043501600435600401613c51565b906001600160401b0382116119a857611352600354613794565b601f8111611959575b508390601f83116001146118d35761138a92918591836118c85750508160011b916000199060031b1c19161790565b6003555b6001600160a01b036113a4600435602401613c9a565b166001600160601b0360a01b600454161760045560018060a01b036113cd604460043501613c9a565b166001600160601b0360a01b600654161760065560018060a01b036113f6606460043501613c9a565b166001600160601b0360a01b600754161760075560018060a01b0361141f608460043501613c9a565b166001600160601b0360a01b600854161760085560018060a01b0361144860a460043501613c9a565b166001600160601b0360a01b600954161760095561146b61012460043501613c43565b9061014460043501359182151580930361119b579161151f9160ff61151095946114a061018460043501600435600401613c51565b6114b56101a460043501600435600401613c51565b97906040519a8b946114c686613817565b60c460043501358652602086019460e46004350135865261150960a0604089019861010460043501358a528b606082019b168b52608081019d8e52019a8b613cae565b3691613cba565b9860c08c01998a523691613cba565b9860e08101998a5251600a5551600b5551600c55511661ff00600d549351151560081b16915160028110156118b45762ff00009060101b169262ffffff1916171717600d55519182516001600160401b0381116118a057611581600e54613794565b601f8111611851575b506020601f82116001146117d057819084956115bb9495926116d75750508160011b916000199060031b1c19161790565b600e555b519081516001600160401b0381116117bc576115dc600f54613794565b601f8111611762575b50602092601f82116001146116e2578293829161161694926116d75750508160011b916000199060031b1c19161790565b600f555b60ff1960155416601555604051611630816137fc565b600281526020810182815260408201838152426060840190815260808401858152929091906001600160a01b0361166b600435602401613c9a565b168652601960205260408620945160068110156108015791600493916116968796946116be98613a78565b51600186015551600285015551600384015551151591019060ff801983541691151516179055565b6116d46116cf602460043501613c9a565b613b5e565b80f35b01519050388061130a565b600f8352601f198216937f8d1108e10bcb7c27dddfc02ed9d693a074039d026cf4ea4240b40f7d581ac80291845b86811061174a5750836001959610611731575b505050811b01600f5561161a565b015160001960f88460031b161c19169055388080611723565b91926020600181928685015181550194019201611710565b6117ac90600f6000527f8d1108e10bcb7c27dddfc02ed9d693a074039d026cf4ea4240b40f7d581ac802601f840160051c810191602085106117b2575b601f0160051c0190613c83565b386115e5565b909150819061179f565b634e487b7160e01b82526041600452602482fd5b600e84527fbb7b4a454dc3493923482f07822329ed19e8244eff582cc204f8554c3620c3fd90601f198316855b81811061183957509583600195969710611820575b505050811b01600e556115bf565b015160001960f88460031b161c19169055388080611812565b9192602060018192868b0151815501940192016117fd565b61189a90600e6000527fbb7b4a454dc3493923482f07822329ed19e8244eff582cc204f8554c3620c3fd601f840160051c810191602085106117b257601f0160051c0190613c83565b3861158a565b634e487b7160e01b83526041600452602483fd5b634e487b7160e01b86526021600452602486fd5b01359050388061130a565b600385528492917fc2575a0e9e593c00f959f8c92f12db2869c3395a3b0502d05e2516446f71f85b91905b601f1984168510611941576001945083601f19811610611927575b505050811b0160035561138e565b0135600019600384901b60f8161c19169055388080611919565b818101358355602094850194600190930192016118fe565b6119a29060036000527fc2575a0e9e593c00f959f8c92f12db2869c3395a3b0502d05e2516446f71f85b601f850160051c810191602086106117b257601f0160051c0190613c83565b3861135b565b634e487b7160e01b84526041600452602484fd5b600285528492917f405787fa12a823e0f2b7631cc41b3ba8828b3321ca811111fa75cd3aa3bb5ace91905b601f1984168510611a2a576001945083601f19811610611a10575b505050811b01600255611323565b0135600019600384901b60f8161c19169055388080611a02565b818101358355602094850194600190930192016119e7565b611a8b9060026000527f405787fa12a823e0f2b7631cc41b3ba8828b3321ca811111fa75cd3aa3bb5ace601f850160051c810191602086106117b257601f0160051c0190613c83565b386112ef565b60405162461bcd60e51b815260206004820152601960248201527f496e76616c696420646179206f66207765656b2028302d3629000000000000006044820152606490fd5b61012460043501600160ff611aea83613c43565b1610159081611b3e575b506112a35760405162461bcd60e51b815260206004820152601b60248201527f496e76616c696420646179206f66206d6f6e74682028312d32382900000000006044820152606490fd5b601c9150611b4d60ff91613c43565b16111538611af4565b60405162461bcd60e51b8152602060048201526013602482015272105b1c9958591e481a5b9a5d1a585b1a5e9959606a1b6044820152606490fd5b503461028c578060031936011261028c5760ff60155416601054601154611bb661400a565b906004841015611bff5760a09460018503611bf95750611bd4614075565b925b611be36040518096613742565b6020850152604084015260608301526080820152f35b92611bd6565b634e487b7160e01b85526021600452602485fd5b503461028c578060031936011261028c57600a54600b5461033a600c5492611c98600d5491611c40613854565b90611c8a611c4c61391a565b94604051988998610100948a5260208a0152604089015260ff8116606089015260ff8160081c161515608089015260ff60a089019160101c166139b9565b8060c08701528501906139c6565b9083820360e08501526139c6565b503461028c57602036600319011261028c576020906004358152601d8252604060018060a01b0391205416604051908152f35b503461028c578060031936011261028c576020611cf4613c1d565b604051908152f35b503461028c578060031936011261028c57611d15613d0f565b3381526019602052600260408220018054908115611d9957829055600654611d4990829033906001600160a01b0316613d79565b6040519081526040602082015260066040820152651b1a5c5d5a5960d21b60608201527fd30b68ba794ba733ec10c7ddce3e044482efdaa4c2e6b3d233800535afe5139b60803392a26001815580f35b60405162461bcd60e51b815260206004820152600f60248201526e4e6f206c69717569642066756e647360881b6044820152606490fd5b503461028c578060031936011261028c57604051601780548083529083526020808301937fc624b66cc0138b8fabc209247f72d758e1cf3343756d543badbf24212bed8c1592915b828210611e2f5761033a8561032e81890382613833565b83546001600160a01b031686529485019460019384019390910190611e18565b503461028c57602036600319011261028c57604090611e6c613660565b8160808451611e7a816137fc565b8281528260208201528286820152826060820152015260018060a01b03168152601960205220604051611eac816137fc565b60ff825416906006821015611f205760a09282825260018101546020830190815260028201549060408401918252608060ff60046003860154956060880196875201541694019315158452611f046040518096613735565b5160208501525160408401525160608301525115156080820152f35b634e487b7160e01b600052602160045260246000fd5b503461028c578060031936011261028c576020601254604051908152f35b503461028c57602036600319011261028c5760406020916004358152601e83522054604051908152f35b503461028c578060031936011261028c57604051601880548083529083526020808301937fb13d2d76d1f4b7be834882e410b3e3a8afaf69f83600ae24db354391d2378d2e92915b828210611fdd5761033a8561032e81890382613833565b83546001600160a01b031686529485019460019384019390910190611fc6565b503461028c578060031936011261028c5760ff601554166004811015610815576120279015613a39565b338152601960205260ff6040822054166006811015610815576121395761205f61205660175460185490613ac9565b600c5411613b26565b60405161206b816137fc565b60018152602081018281526040820183815260608301908482526080840192858452338652601960205260408620945160068110156108015791600493916116968796946120b898613a78565b601854600160401b811015612123576120da8160016120f8930160185561368c565b81546001600160a01b0360039290921b91821b19163390911b179055565b336001547f9ee8d7da893daf422390cff0ff5526d932f5b90ef955830d41691656e5e0fc008380a380f35b634e487b7160e01b600052604160045260246000fd5b60405162461bcd60e51b815260206004820152601b60248201527f416c726561647920726571756573746564206f72206d656d62657200000000006044820152606490fd5b503461028c578060031936011261028c57612197613d0f565b60ff60155416600481101580610a4257600282148015612335575b156122ff573383526019602052604083209160ff835416906006821015611bff57600382149283156122d9575b505050156122a55760010180549081156122695782905560065461220f90829033906001600160a01b0316613d79565b60405190815260406020820152601060408201526f1cd958dd5c9a5d1e57d9195c1bdcda5d60821b60608201527fd30b68ba794ba733ec10c7ddce3e044482efdaa4c2e6b3d233800535afe5139b60803392a26001815580f35b60405162461bcd60e51b81526020600482015260146024820152734e6f207374616b6520746f20776974686472617760601b6044820152606490fd5b60405162461bcd60e51b815260206004820152600c60248201526b4e6f7420656c696769626c6560a01b6044820152606490fd5b909192506108f05760031490816122f4575b503880806121df565b6002915014386122eb565b60405162461bcd60e51b815260206004820152600e60248201526d141bdbdb081b9bdd08195b99195960921b6044820152606490fd5b50506000600382146121b2565b503461028c578060031936011261028c576020600154604051908152f35b503461028c5760208060031936011261119f5761237b613660565b6004546001600160a01b0392906123959084163314613a90565b60ff9160ff601554169060048210156118b45784906123b76001809414613b9f565b16938486526019835260ff60408720541660068110156108015760036123dd9114613bdd565b6010548652601c835260408620858752835260ff6040872054166126745760135462093a80810180911161266057421115612623578590858252601984528260408320600460ff1982541617815501948286549655601a855260408320908484905b61259f575b50505061245385601454613ac9565b60145581848260075416606486546040519485938492630ab714fb60e11b84528d600485015260248401528b60448401525af190811561259457859161256b575b505060085416803b1561119f57819060246040518094819363237dcd4b60e21b83528a60048401525af180156125605761252b575b50907fe64e4498c8ee27b1c035118409ed1e4745b9817506733c0be802cbfbefb77c1d916124f561400a565b6011555492604051903386867f780b0fcc4a6a72383025953906e79bc7643b60d1106276a08073b4939128c93e8a80a48152a380f35b946125587fe64e4498c8ee27b1c035118409ed1e4745b9817506733c0be802cbfbefb77c1d9392966137e9565b9490916124c9565b6040513d88823e3d90fd5b813d831161258d575b61257e8183613833565b8101031261119f578338612494565b503d612574565b6040513d85823e3d90fd5b90919293835482101561261c57508160026125ba8386613a06565b50015416156125d1575b889392919085018561243f565b9590846125ee8493826125e58b8298613a06565b50015490613ac9565b97856125fa8286613a06565b5054168b52601b885260408b208a8c5288528a604081205591929350506125c4565b9392612444565b60405162461bcd60e51b815260048101849052601560248201527423b930b1b2903832b934b7b2103737ba1037bb32b960591b6044820152606490fd5b634e487b7160e01b87526011600452602487fd5b60405162461bcd60e51b815260048101849052601660248201527513595b58995c881a185cc818dbdb9d1c9a589d5d195960521b6044820152606490fd5b503461028c578060031936011261028c576004546001600160a01b03906126dc9082163314613a90565b60ff80601554169160048310156108f0576126fa6001809414613b9f565b60105492838552602092601f845260ff6040872054166129865761271c613f5e565b15612941576016549161272e83613a22565b9261273c6040519485613833565b808452601f1961274b82613a22565b0136878601378792885b8281106128b45750505050801561287957906127a09160015460405186810191428352446040830152886060830152608082015260808152612796816137fc565b5190200690613ff6565b5116918352601d815260408320826001600160601b0360a01b8254161790556127c761400a565b600a5481810291818304149015171561286557906127fa601f92859060145480151580612858575b61284b575b50613ac9565b6010548552601e8252604085205560105484525260408220600160ff19825416179055600154601054907f62430e575415a7cca914c7e6fcd22c6820a2ac8030e94b1653d0715e5f4a2ec28480a480f35b60148890559150386127f4565b50601054601154146127ef565b634e487b7160e01b84526011600452602484fd5b60405162461bcd60e51b81526004810185905260136024820152724e6f20656c696769626c652077696e6e65727360681b6044820152606490fd5b8988888460406128c3866136d9565b939054600394851b1c16948581526019809552205416600681101561292d57149081612916575b506128f8575b508301612755565b8561290f916129098794988a613ff6565b52613d00565b94906128f0565b828d528a525060408b2060040154831615386128ea565b634e487b7160e01b8e52602160045260248efd5b60405162461bcd60e51b815260048101859052601b60248201527f4e6f7420616c6c206d656d6265727320636f6e747269627574656400000000006044820152606490fd5b60405162461bcd60e51b815260048101859052601760248201527f526f756e6420616c726561647920636f6d706c657465640000000000000000006044820152606490fd5b503461028c57602036600319011261028c576129e5613660565b6004546001600160a01b03906129fe9082163314613a90565b60ff6015541660048110156108f057612a179015613a39565b811690818352601960205260ff60408420541660068110156108f0576001612a3f9114613aec565b612a4e601754600c5411613b26565b60ff600d5460081c16612ab5575b612a8b90828452601960205260408420600260ff19825416178155600342910155612a8681613b5e565b613eab565b6001547ff82bc0e8a4de86d2209664611c85db13af5a495a764e1629b288dc12181d7f3c8380a380f35b818352601a6020526040832054612a5c5760405162461bcd60e51b815260206004820152600e60248201526d159bdd58da081c995c5d5a5c995960921b6044820152606490fd5b503461028c57602036600319011261028c576004359060165482101561028c576020610bff836136d9565b503461028c578060031936011261028c576007546040516001600160a01b039091168152602090f35b503461028c578060031936011261028c57602060ff60155416612b766040518092613742565bf35b503461028c5760208060031936011261119f57612b93613660565b91612b9c613d0f565b60ff9260ff60155416906004821015610a425760029160028114908115612dcb575b508015612da1575b15612d5c576001600160a01b0390811680845260198552604084205490919060ff166006811015611bff57600414612d235783828152601a86526040812092815b8454811015612c825780612c1d60019287613a06565b50548516331480612c6b575b612c34575b01612c07565b612c4e612c418288613a06565b509883809a015490613ac9565b9787612c5a8389613a06565b50019060ff19825416179055612c2e565b508987612c788389613a06565b5001541615612c29565b508587848215612ce75782612cb291338752601b8452604087208688528452866040812055339060065416613d79565b7f25b4b0c51024f3bfc4ccb5706bfb68bc214b8d65778b453778798cfc6a31dd34600154916040519384523393a46001815580f35b60405162461bcd60e51b81526004810183905260146024820152734e6f20766f75636820746f20776974686472617760601b6044820152606490fd5b60405162461bcd60e51b8152600481018690526011602482015270159bdd58da195948191959985d5b1d1959607a1b6044820152606490fd5b60405162461bcd60e51b815260048101859052601960248201527f43616e6e6f7420776974686472617720766f75636820796574000000000000006044820152606490fd5b506001600160a01b038116835260198452604083205460ff1660068110156108f057600514612bc6565b600391501438612bbe565b503461028c578060031936011261028c57612dfc60018060a01b03600454163314613a90565b60155460ff81166004811015610a425790612e1960039215613a39565b60ff1916176015556001547f3d229dd60fc64b0903758feed58453f62e715f5d01dc0978c0a3a312dd2776c28280a280f35b503461028c57604036600319011261028c57612e65613660565b60248035612e71613d0f565b33845260206019815260ff604086205416600681101561320c576003036131d4576001600160a01b0393841680865260198252604086205460ff169490939060068610156131c1576001809614801561318d575b156131495783156131055760085460405163095557e960e01b815233600482015290821684828581845afa9182156130c857849186918b946130d3575b5060405163f669f68560e01b815233600482015292839182905afa9182156130c85788918a93613095575b501015908161308c575b501561305057612f4f84826006541630903390613d32565b848752601a8352604087209060405190612f68826137ce565b3382528482019186835260408101938a8552805490600160401b82101561303d5790612f98918b82018155613a06565b95909561302b575091612fd894939160029351166001600160601b0360a01b855416178455518884015551151591019060ff801983541691151516179055565b338552601b815260408520838652815260408520612ff7838254613ac9565b90557fcf7abced237f01f00d87cb8fcdc9b138762cca63a9d6bccd76d11c31fb7249f58454916040519384523393a4815580f35b634e487b7160e01b8b5260048b90528afd5b634e487b7160e01b8c526041600452868cfd5b60405162461bcd60e51b8152600481018490526015818401527409cdee840cad8d2ced2c4d8ca40e8de40ecdeeac6d605b1b6044820152606490fd5b90501538612f37565b86809294508193503d83116130c1575b6130af8183613833565b81010312610705578790519138612f2d565b503d6130a5565b6040513d8b823e3d90fd5b9250925081813d83116130fe575b6130eb8183613833565b8101031261070557848491519238612f02565b503d6130e1565b60405162461bcd60e51b8152600481018490526017818401527f416d6f756e74206d75737420626520706f7369746976650000000000000000006044820152606490fd5b60405162461bcd60e51b815260048101849052601c818401527f43616e6e6f7420766f75636820666f722074686973206d656d626572000000006044820152606490fd5b508487526019835260ff60408820541660068110156131ae57600214612ec5565b634e487b7160e01b885260216004528288fd5b50634e487b7160e01b8652602160045285fd5b6064906012846040519262461bcd60e51b8452600484015282015271566f7563686572206e6f742061637469766560701b6044820152fd5b634e487b7160e01b865260216004528386fd5b503461028c5760208060031936011261119f5761323a613660565b6004546001600160a01b03908116929190613256338514613a90565b60ff6015541660048110156118b45761326f9015613a39565b808216938486526019845260ff60408720541660068110156108015760020361335357841461331857601992916132c3918587528484526001604088200190828254918983613300575b5050505050613dc8565b8284525260408220805460ff191660051790556001547f1c4c9d2e56d0635d11bc47c997c6909a0d7061f55cbb8f4b27386db37553191c8380a380f35b61330e945560065416613d79565b38808281896132b9565b60405162461bcd60e51b815260048101849052601360248201527221b0b73737ba103932b6b7bb329030b236b4b760691b6044820152606490fd5b6064846040519062461bcd60e51b825280600483015260248201527f43616e206f6e6c792072656d6f766520617070726f766564206d656d626572736044820152fd5b503461028c57602036600319011261028c5760a0906040906001600160a01b036133be613660565b16815260196020522060ff81541690600181015490600281015460ff6004600384015493015416926133f36040518096613735565b60208501526040840152606083015215156080820152f35b503461028c578060031936011261028c57613424613d0f565b60ff6015541660048110156108155761343d9015613a39565b33815260196020526040812060ff8154166006811015610a4257600203613504576001810180546134ce57600654600b5461348491309033906001600160a01b0316613d32565b600b549055600360ff19825416179055600154600b54906040519182527fc90b44923abee7fe087fff94665ceb837e672353f4468b3e5d146fb35d8b4df760203393a36001815580f35b60405162461bcd60e51b815260206004820152600e60248201526d105b1c9958591e481b1bd8dad95960921b6044820152606490fd5b60405162461bcd60e51b815260206004820152600c60248201526b139bdd08185c1c1c9bdd995960a21b6044820152606490fd5b503461028c57602036600319011261028c576004359060185482101561028c576020610bff8361368c565b503461028c576020908160031936011261028c576001600160a01b0391908261358a613660565b168152601a8252604081209081546135a181613a22565b906135af6040519283613833565b8082528482018094845285842084915b83831061361b57505050506040519380850191818652518092526040850193925b8281106135ed5785850386f35b83518051881686528083015186840152604090810151151590860152606090940193928101926001016135e0565b60038860019260409a97989a51613631816137ce565b8c8654168152848601548382015260ff60028701541615156040820152815201920192019190969493966135bf565b600435906001600160a01b038216820361105457565b602435906001600160a01b038216820361105457565b6018548110156136c35760186000527fb13d2d76d1f4b7be834882e410b3e3a8afaf69f83600ae24db354391d2378d2e0190600090565b634e487b7160e01b600052603260045260246000fd5b6016548110156136c35760166000526000805160206142288339815191520190600090565b6017548110156136c35760176000527fc624b66cc0138b8fabc209247f72d758e1cf3343756d543badbf24212bed8c150190600090565b906006821015611f205752565b906004821015611f205752565b602090602060408183019282815285518094520193019160005b828110613777575050505090565b83516001600160a01b031685529381019392810192600101613769565b90600182811c921680156137c4575b60208310146137ae57565b634e487b7160e01b600052602260045260246000fd5b91607f16916137a3565b606081019081106001600160401b0382111761212357604052565b6001600160401b03811161212357604052565b60a081019081106001600160401b0382111761212357604052565b61010081019081106001600160401b0382111761212357604052565b90601f801991011681019081106001600160401b0382111761212357604052565b60405190600082600e549161386883613794565b808352926020906001908181169081156138f65750600114613895575b505061389392500383613833565b565b915092600e6000527fbb7b4a454dc3493923482f07822329ed19e8244eff582cc204f8554c3620c3fd936000925b8284106138de57506138939450505081016020013880613885565b855488850183015294850194879450928101926138c3565b9150506020925061389394915060ff191682840152151560051b8201013880613885565b60405190600082600f549161392e83613794565b808352926020906001908181169081156138f6575060011461395857505061389392500383613833565b915092600f6000527f8d1108e10bcb7c27dddfc02ed9d693a074039d026cf4ea4240b40f7d581ac802936000925b8284106139a157506138939450505081016020013880613885565b85548885018301529485019487945092810192613986565b906002821015611f205752565b919082519283825260005b8481106139f2575050826000602080949584010152601f8019910116010190565b6020818301810151848301820152016139d1565b80548210156136c3576000526003602060002091020190600090565b6001600160401b0381116121235760051b60200190565b15613a4057565b60405162461bcd60e51b815260206004820152601060248201526f506f6f6c206e6f742070656e64696e6760801b6044820152606490fd5b906006811015611f205760ff80198354169116179055565b15613a9757565b60405162461bcd60e51b815260206004820152600a60248201526927b7363c9030b236b4b760b11b6044820152606490fd5b91908201809211613ad657565b634e487b7160e01b600052601160045260246000fd5b15613af357565b60405162461bcd60e51b815260206004820152600b60248201526a4e6f742070656e64696e6760a81b6044820152606490fd5b15613b2d57565b60405162461bcd60e51b8152602060048201526009602482015268141bdbdb08199d5b1b60ba1b6044820152606490fd5b60175490600160401b82101561212357613b8182600161389394016017556136fe565b90919060018060a01b038084549260031b9316831b921b1916179055565b15613ba657565b60405162461bcd60e51b815260206004820152600f60248201526e506f6f6c206e6f742061637469766560881b6044820152606490fd5b15613be457565b60405162461bcd60e51b81526020600482015260116024820152702737ba1030b1ba34bb329036b2b6b132b960791b6044820152606490fd5b60ff601554166004811015611f2057600103613c3e57613c3b614075565b90565b600090565b3560ff811681036110545790565b903590601e198136030182121561105457018035906001600160401b0382116110545760200191813603831361105457565b818110613c8e575050565b60008155600101613c83565b356001600160a01b03811681036110545790565b6002821015611f205752565b9291926001600160401b0382116121235760405191613ce3601f8201601f191660200184613833565b829481845281830111611054578281602093846000960137010152565b6000198114613ad65760010190565b600260005414613d20576002600055565b604051633ee5aeb560e01b8152600490fd5b6040516323b872dd60e01b60208201526001600160a01b03928316602482015292909116604483015260648083019390935291815261389391613d74826137fc565b6141bf565b60405163a9059cbb60e01b60208201526001600160a01b03909216602483015260448083019390935291815260808101916001600160401b0383118284101761212357613893926040526141bf565b6001600160a01b039081166000818152601a60209081526040808320909594835b8254811015613ea1578086613e0060019386613a06565b5060ff6002809201541615613e18575b505001613de9565b8a7f25b4b0c51024f3bfc4ccb5706bfb68bc214b8d65778b453778798cfc6a31dd3488613e45868a613a06565b508701548789613e55898d613a06565b50541695613e63898d613a06565b50018160ff19825416179055858d52601b83528c87868220915283528c85812055613e9382878c60065416613d79565b549351908152a48638613e10565b5050505050509050565b6000905b60189182549283821015613f5857613ec68261368c565b90546003956001600160a01b0392909190871b1c821685831614613ef1575050506001019150613eaf565b919350916000199182810191908211613ad657613b8184613f14613f219461368c565b905490891b1c169161368c565b82548015613f42570192613f348461368c565b81939154921b1b1916905555565b634e487b7160e01b600052603160045260246000fd5b50505050565b60175460005b818110613f72575050600190565b613f7b816136fe565b9054600391821b1c6001600160a01b031660008181526019602090815260409182902054909360ff939184166006811015611f2057149384613fcf575b50505050613fc857600101613f64565b5050600090565b9091929350601054600052601c815282600020916000525260002054161538808080613fb8565b80518210156136c35760209160051b010190565b600080601754905b81811061401e57505090565b614027816136fe565b9054600391821b1c6001600160a01b031660009081526019602052604090205460ff166006811015611f205714614061575b600101614012565b9161406d600191613d00565b929050614059565b600d5460ff8160101c166002811015611f205761415657620151808042046004928382018092116141415760ff16600781019182821161412c5790600780920690030190811161410f57600790068015614124575b6013549082810292818404149015171561410f57906140e891613ac9565b9062093a8082018092116140fa575090565b601190634e487b7160e01b6000525260246000fd5b601183634e487b7160e01b6000525260246000fd5b5060076140ca565b601185634e487b7160e01b6000525260246000fd5b601184634e487b7160e01b6000525260246000fd5b5060135462093a808101809111613ad65790565b60175460005b81811061417e575050600190565b614187816136fe565b60018060a01b0391549060031b1c16600052601960205260ff604060002054166006811015611f2057600214613fc857600101614170565b906000602091828151910182855af11561421b576000513d61421257506001600160a01b0381163b155b6141f05750565b604051635274afe760e01b81526001600160a01b039091166004820152602490fd5b600114156141e9565b6040513d6000823e3d90fdfed833147d7dc355ba459fc788f669e58cfaf9dc25ddcd0702e87d69c7b5124289a26469706673582212206c1885df473a1416f033c2dce1f050c28e972d5055c40c1676ab692a10fe84d064736f6c63430008180033",
  "linkReferences": {},
  "deployedLinkReferences": {}
}